{
  "contractName": "Voting",
  "abi": [
    {
      "anonymous": false,
      "inputs": [
        {
          "indexed": true,
          "internalType": "address",
          "name": "previousOwner",
          "type": "address"
        },
        {
          "indexed": true,
          "internalType": "address",
          "name": "newOwner",
          "type": "address"
        }
      ],
      "name": "OwnershipTransferred",
      "type": "event"
    },
    {
      "anonymous": false,
      "inputs": [
        {
          "indexed": false,
          "internalType": "uint256",
          "name": "proposalId",
          "type": "uint256"
        }
      ],
      "name": "ProposalRegistered",
      "type": "event"
    },
    {
      "anonymous": false,
      "inputs": [],
      "name": "ProposalsRegistrationEnded",
      "type": "event"
    },
    {
      "anonymous": false,
      "inputs": [],
      "name": "ProposalsRegistrationStarted",
      "type": "event"
    },
    {
      "anonymous": false,
      "inputs": [
        {
          "indexed": false,
          "internalType": "address",
          "name": "voter",
          "type": "address"
        },
        {
          "indexed": false,
          "internalType": "uint256",
          "name": "proposalId",
          "type": "uint256"
        }
      ],
      "name": "Voted",
      "type": "event"
    },
    {
      "anonymous": false,
      "inputs": [
        {
          "indexed": false,
          "internalType": "address",
          "name": "voterAddress",
          "type": "address"
        }
      ],
      "name": "VoterRegistered",
      "type": "event"
    },
    {
      "anonymous": false,
      "inputs": [],
      "name": "VotesTallied",
      "type": "event"
    },
    {
      "anonymous": false,
      "inputs": [],
      "name": "VotingSessionEnded",
      "type": "event"
    },
    {
      "anonymous": false,
      "inputs": [],
      "name": "VotingSessionStarted",
      "type": "event"
    },
    {
      "anonymous": false,
      "inputs": [
        {
          "indexed": false,
          "internalType": "enum Voting.WorkflowStatus",
          "name": "previousStatus",
          "type": "uint8"
        },
        {
          "indexed": false,
          "internalType": "enum Voting.WorkflowStatus",
          "name": "newStatus",
          "type": "uint8"
        }
      ],
      "name": "WorkflowStatusChange",
      "type": "event"
    },
    {
      "inputs": [],
      "name": "owner",
      "outputs": [
        {
          "internalType": "address",
          "name": "",
          "type": "address"
        }
      ],
      "stateMutability": "view",
      "type": "function",
      "constant": true
    },
    {
      "inputs": [
        {
          "internalType": "uint256",
          "name": "",
          "type": "uint256"
        }
      ],
      "name": "proposals",
      "outputs": [
        {
          "internalType": "string",
          "name": "description",
          "type": "string"
        },
        {
          "internalType": "uint256",
          "name": "voteCount",
          "type": "uint256"
        }
      ],
      "stateMutability": "view",
      "type": "function",
      "constant": true
    },
    {
      "inputs": [],
      "name": "renounceOwnership",
      "outputs": [],
      "stateMutability": "nonpayable",
      "type": "function"
    },
    {
      "inputs": [],
      "name": "status",
      "outputs": [
        {
          "internalType": "enum Voting.WorkflowStatus",
          "name": "",
          "type": "uint8"
        }
      ],
      "stateMutability": "view",
      "type": "function",
      "constant": true
    },
    {
      "inputs": [
        {
          "internalType": "address",
          "name": "newOwner",
          "type": "address"
        }
      ],
      "name": "transferOwnership",
      "outputs": [],
      "stateMutability": "nonpayable",
      "type": "function"
    },
    {
      "inputs": [
        {
          "internalType": "address",
          "name": "",
          "type": "address"
        }
      ],
      "name": "voters",
      "outputs": [
        {
          "internalType": "bool",
          "name": "isRegistered",
          "type": "bool"
        },
        {
          "internalType": "bool",
          "name": "hasVoted",
          "type": "bool"
        },
        {
          "internalType": "uint256",
          "name": "votedProposalId",
          "type": "uint256"
        }
      ],
      "stateMutability": "view",
      "type": "function",
      "constant": true
    },
    {
      "inputs": [],
      "name": "winningProposalId",
      "outputs": [
        {
          "internalType": "uint256",
          "name": "",
          "type": "uint256"
        }
      ],
      "stateMutability": "view",
      "type": "function",
      "constant": true
    },
    {
      "inputs": [
        {
          "internalType": "address",
          "name": "_addr",
          "type": "address"
        }
      ],
      "name": "whitelist",
      "outputs": [],
      "stateMutability": "nonpayable",
      "type": "function"
    },
    {
      "inputs": [
        {
          "internalType": "string",
          "name": "_description",
          "type": "string"
        }
      ],
      "name": "registerProposal",
      "outputs": [],
      "stateMutability": "nonpayable",
      "type": "function"
    },
    {
      "inputs": [
        {
          "internalType": "uint256",
          "name": "_proposalId",
          "type": "uint256"
        }
      ],
      "name": "vote",
      "outputs": [],
      "stateMutability": "nonpayable",
      "type": "function"
    },
    {
      "inputs": [],
      "name": "setWinner",
      "outputs": [],
      "stateMutability": "nonpayable",
      "type": "function"
    },
    {
      "inputs": [],
      "name": "changeToNextStatus",
      "outputs": [],
      "stateMutability": "nonpayable",
      "type": "function"
    }
  ],
  "bytecode": "0x608060405234801561001057600080fd5b5060006100246001600160e01b0361007316565b600080546001600160a01b0319166001600160a01b0383169081178255604051929350917f8be0079c531659141344cd1fd0a4f28419497f9722a3daafe3b4186f6b6457e0908290a350610077565b3390565b610ed2806100866000396000f3fe608060405234801561001057600080fd5b50600436106100b45760003560e01c80638da5cb5b116100715780638da5cb5b146102565780639b19251a1461027a578063a3ec138d146102a0578063c64963c5146102e6578063ed05084e14610300578063f2fde38b14610308576100b4565b80630121b93f146100b9578063013cf08b146100d8578063200d2ed2146101745780632f95355b146101a05780633fcba4eb14610246578063715018a61461024e575b600080fd5b6100d6600480360360208110156100cf57600080fd5b503561032e565b005b6100f5600480360360208110156100ee57600080fd5b50356104c9565b6040518080602001838152602001828103825284818151815260200191508051906020019080838360005b83811015610138578181015183820152602001610120565b50505050905090810190601f1680156101655780820380516001836020036101000a031916815260200191505b50935050505060405180910390f35b61017c61057c565b6040518082600581111561018c57fe5b60ff16815260200191505060405180910390f35b6100d6600480360360208110156101b657600080fd5b8101906020810181356401000000008111156101d157600080fd5b8201836020820111156101e357600080fd5b8035906020019184600183028401116401000000008311171561020557600080fd5b91908080601f016020809104026020016040519081016040528093929190818152602001838380828437600092019190915250929550610585945050505050565b6100d66106e5565b6100d6610874565b61025e610920565b604080516001600160a01b039092168252519081900360200190f35b6100d66004803603602081101561029057600080fd5b50356001600160a01b0316610930565b6102c6600480360360208110156102b657600080fd5b50356001600160a01b0316610ac5565b604080519315158452911515602084015282820152519081900360600190f35b6102ee610aeb565b60408051918252519081900360200190f35b6100d6610af1565b6100d66004803603602081101561031e57600080fd5b50356001600160a01b0316610c3d565b600360025460ff16600581111561034157fe5b14610381576040805162461bcd60e51b815260206004820152600b60248201526a139bdd08185b1b1bddd95960aa1b604482015290519081900360640190fd5b336000908152600360205260409020805460ff166103e0576040805162461bcd60e51b8152602060048201526017602482015276165bdd48185c99481b9bdd081dda1a5d195b1a5cdd1959604a1b604482015290519081900360640190fd5b8054610100900460ff1615610436576040805162461bcd60e51b8152602060048201526017602482015276165bdd48185c99481b9bdd081dda1a5d195b1a5cdd1959604a1b604482015290519081900360640190fd5b805461ff00191661010017815560018101829055604080513381526020810184905281517f4d99b957a2bc29a30ebd96a7be8e68fe50a3c701db28a91436490b7d53870ca4929181900390910190a160006004600184038154811061049757fe5b906000526020600020906002020190506104bf60018260010154610d3f90919063ffffffff16565b6001909101555050565b600481815481106104d657fe5b60009182526020918290206002918202018054604080516001831615610100026000190190921693909304601f81018590048502820185019093528281529093509183919083018282801561056c5780601f106105415761010080835404028352916020019161056c565b820191906000526020600020905b81548152906001019060200180831161054f57829003601f168201915b5050505050908060010154905082565b60025460ff1681565b600160025460ff16600581111561059857fe5b146105d8576040805162461bcd60e51b815260206004820152600b60248201526a139bdd08185b1b1bddd95960aa1b604482015290519081900360640190fd5b3360009081526003602052604090205460ff16610636576040805162461bcd60e51b8152602060048201526017602482015276165bdd48185c99481b9bdd081dda1a5d195b1a5cdd1959604a1b604482015290519081900360640190fd5b61063e610da4565b5060408051808201909152818152600060208083018290526004805460018101825592528251805184936002027f8a35acfbc15ff81a39ae7d344fd709f28e8600b4aa8c65c6b64bfe7fe36bd19b019261069c928492910190610dbe565b5060209182015160019091015560045460408051828152905191927f92e393e9b54e2f801d3ea4beb0c5e71a21cc34a5d34b77d0fb8a3aa1650dc18f92918290030190a1505050565b6106ed610da0565b6001600160a01b03166106fe610920565b6001600160a01b031614610747576040805162461bcd60e51b81526020600482018190526024820152600080516020610e7d833981519152604482015290519081900360640190fd5b60025460ff16600081600581111561075b57fe5b141561077a57600280546001919060ff191682805b021790555061080c565b600160025460ff16600581111561078d57fe5b14156107a55760028054819060ff1916600182610770565b6002805460ff1660058111156107b757fe5b14156107d157600280546003919060ff1916600183610770565b600360025460ff1660058111156107e457fe5b14156107fe57600280546004919060ff1916600183610770565b6002805460ff191660051790555b6002546040517f0a97a4ee45751e2abf3e4fc8946939630b11b371ea8ae39ccdc3056e98f5cc3f91839160ff909116908083600581111561084957fe5b60ff16815260200182600581111561085d57fe5b60ff1681526020019250505060405180910390a150565b61087c610da0565b6001600160a01b031661088d610920565b6001600160a01b0316146108d6576040805162461bcd60e51b81526020600482018190526024820152600080516020610e7d833981519152604482015290519081900360640190fd5b600080546040516001600160a01b03909116907f8be0079c531659141344cd1fd0a4f28419497f9722a3daafe3b4186f6b6457e0908390a3600080546001600160a01b0319169055565b6000546001600160a01b03165b90565b610938610da0565b6001600160a01b0316610949610920565b6001600160a01b031614610992576040805162461bcd60e51b81526020600482018190526024820152600080516020610e7d833981519152604482015290519081900360640190fd5b600060025460ff1660058111156109a557fe5b146109f7576040805162461bcd60e51b815260206004820152601d60248201527f5265676973746572696e6720766f74657273207465726d696e61746564000000604482015290519081900360640190fd5b6001600160a01b03811660009081526003602052604090205460ff16151560011415610a6a576040805162461bcd60e51b815260206004820152601b60248201527f596f752061726520616c72656164792077686974656c69737465640000000000604482015290519081900360640190fd5b6001600160a01b038116600081815260036020908152604091829020805460ff19166001179055815192835290517fb6be2187d059cc2a55fe29e0e503b566e1e0f8c8780096e185429350acffd3dd9281900390910190a150565b6003602052600090815260409020805460019091015460ff808316926101009004169083565b60015481565b610af9610da0565b6001600160a01b0316610b0a610920565b6001600160a01b031614610b53576040805162461bcd60e51b81526020600482018190526024820152600080516020610e7d833981519152604482015290519081900360640190fd5b600460025460ff166005811115610b6657fe5b14610ba6576040805162461bcd60e51b815260206004820152600b60248201526a139bdd08185b1b1bddd95960aa1b604482015290519081900360640190fd5b600080805b600454811015610c08578260048281548110610bc357fe5b9060005260206000209060020201600101541115610c005760048181548110610be857fe5b90600052602060002090600202016001015492508091505b600101610bab565b50600180820190556040517f0e5e95ff8725ab3e7a4b6b59998a4c344c2aa8d1485f5e60cb7f337768e6134790600090a15050565b610c45610da0565b6001600160a01b0316610c56610920565b6001600160a01b031614610c9f576040805162461bcd60e51b81526020600482018190526024820152600080516020610e7d833981519152604482015290519081900360640190fd5b6001600160a01b038116610ce45760405162461bcd60e51b8152600401808060200182810382526026815260200180610e576026913960400191505060405180910390fd5b600080546040516001600160a01b03808516939216917f8be0079c531659141344cd1fd0a4f28419497f9722a3daafe3b4186f6b6457e091a3600080546001600160a01b0319166001600160a01b0392909216919091179055565b600082820183811015610d99576040805162461bcd60e51b815260206004820152601b60248201527f536166654d6174683a206164646974696f6e206f766572666c6f770000000000604482015290519081900360640190fd5b9392505050565b3390565b604051806040016040528060608152602001600081525090565b828054600181600116156101000203166002900490600052602060002090601f016020900481019282601f10610dff57805160ff1916838001178555610e2c565b82800160010185558215610e2c579182015b82811115610e2c578251825591602001919060010190610e11565b50610e38929150610e3c565b5090565b61092d91905b80821115610e385760008155600101610e4256fe4f776e61626c653a206e6577206f776e657220697320746865207a65726f20616464726573734f776e61626c653a2063616c6c6572206973206e6f7420746865206f776e6572a2646970667358221220e5db90ca278985baec57aa67416cdc4b37a72edc43a6fe3c482906029e722b6f64736f6c634300060b0033",
  "immutableReferences": {},
  "source": "pragma solidity 0.6.11;\nimport \"@openzeppelin/contracts/access/Ownable.sol\";\nimport \"@openzeppelin/contracts/math/SafeMath.sol\";\n\ncontract Voting is Ownable {\n    using SafeMath for uint;\n    \n    struct Voter {\n        bool isRegistered;\n        bool hasVoted;\n        uint votedProposalId;\n    }\n\n    struct Proposal {\n        string description;\n        uint voteCount;\n    }\n    \n    enum WorkflowStatus {\n        RegisteringVoters,\n        ProposalsRegistrationStarted,\n        ProposalsRegistrationEnded,\n        VotingSessionStarted,\n        VotingSessionEnded,\n        VotesTallied\n    }\n    \n    event VoterRegistered(address voterAddress);\n    event ProposalsRegistrationStarted();\n    event ProposalsRegistrationEnded();\n    event ProposalRegistered(uint proposalId);\n    event VotingSessionStarted();\n    event VotingSessionEnded();\n    event Voted (address voter, uint proposalId);\n    event VotesTallied();\n    event WorkflowStatusChange(WorkflowStatus previousStatus, WorkflowStatus newStatus);\n    \n    uint public winningProposalId;\n    \n    WorkflowStatus public status;\n    \n    mapping(address => Voter) public voters;\n    \n    Proposal[] public proposals;\n    \n    function whitelist(address _addr) external onlyOwner {\n        require(status == WorkflowStatus.RegisteringVoters, \"Registering voters terminated\");\n        require(voters[_addr].isRegistered != true, \"You are already whitelisted\");\n        voters[_addr].isRegistered = true;\n        emit VoterRegistered(_addr);  \n    }\n    \n    function registerProposal(string memory _description) external {\n        require(status == WorkflowStatus.ProposalsRegistrationStarted, \"Not allowed\");\n        require(voters[msg.sender].isRegistered,\"You are not whitelisted\"); \n\n        Proposal memory propositionR = Proposal(_description, 0); \n        proposals.push(propositionR); \n        \n        uint proposalId = proposals.length;\n        \n        emit ProposalRegistered(proposalId); \n    }\n\n    function vote(uint _proposalId) external {\n        require(status == WorkflowStatus.VotingSessionStarted, \"Not allowed\");\n        Voter storage votant = voters[msg.sender];\n    \n        require(votant.isRegistered,\"You are not whitelisted\"); \n        require(!votant.hasVoted, \"You are not whitelisted\"); \n    \n        votant.hasVoted = true; \n        votant.votedProposalId = _proposalId;\n    \n        emit Voted(msg.sender, _proposalId);\n        Proposal storage propositionV = proposals[_proposalId - 1];\n        \n        propositionV.voteCount = (propositionV.voteCount).add(1);\n    }\n    \n    function setWinner() external onlyOwner {\n        require(status == WorkflowStatus.VotingSessionEnded, \"Not allowed\");\n        uint count;\n        uint winner;\n        \n        for(uint i = 0; i < proposals.length; i++) {\n            if (proposals[i].voteCount > count) {\n                count = proposals[i].voteCount;\n                winner = i;\n            }\n        }\n        \n        winningProposalId = winner + 1;\n        \n        emit VotesTallied();\n    }\n    \n    function changeToNextStatus() external onlyOwner {\n        WorkflowStatus previousStatus = status;\n        \n        if (status == WorkflowStatus.RegisteringVoters) {\n            status = WorkflowStatus.ProposalsRegistrationStarted;\n        }\n        else if (status == WorkflowStatus.ProposalsRegistrationStarted) {\n            status = WorkflowStatus.ProposalsRegistrationEnded;\n        }\n        else if (status == WorkflowStatus.ProposalsRegistrationEnded) {\n            status = WorkflowStatus.VotingSessionStarted;\n        }\n        else if (status == WorkflowStatus.VotingSessionStarted) {\n            status = WorkflowStatus.VotingSessionEnded;\n        }\n        else {\n            status = WorkflowStatus.VotesTallied;\n        }\n        \n        emit WorkflowStatusChange(previousStatus, status);\n    }\n}\n",
  "sourcePath": "/Users/bob/alyra/test-defi/contracts/Voting.sol",
  "compiler": {
    "name": "solc",
    "version": "0.6.11+commit.5ef660b1.Emscripten.clang"
  },
  "schemaVersion": "3.2.1",
  "updatedAt": "2021-03-20T12:48:07.919Z",
  "networkType": "ethereum",
  "devdoc": {
    "kind": "dev",
    "methods": {
      "owner()": {
        "details": "Returns the address of the current owner."
      },
      "renounceOwnership()": {
        "details": "Leaves the contract without owner. It will not be possible to call `onlyOwner` functions anymore. Can only be called by the current owner. NOTE: Renouncing ownership will leave the contract without an owner, thereby removing any functionality that is only available to the owner."
      },
      "transferOwnership(address)": {
        "details": "Transfers ownership of the contract to a new account (`newOwner`). Can only be called by the current owner."
      }
    },
    "version": 1
  },
  "userdoc": {
    "kind": "user",
    "methods": {},
    "version": 1
  }
}